{
  "contractName": "VoteToken",
  "abi": [
    {
      "constant": true,
      "inputs": [],
      "name": "mintingFinished",
      "outputs": [
        {
          "name": "",
          "type": "bool"
        }
      ],
      "payable": false,
      "stateMutability": "view",
      "type": "function"
    },
    {
      "constant": true,
      "inputs": [],
      "name": "name",
      "outputs": [
        {
          "name": "",
          "type": "string"
        }
      ],
      "payable": false,
      "stateMutability": "view",
      "type": "function"
    },
    {
      "constant": false,
      "inputs": [
        {
          "name": "_spender",
          "type": "address"
        },
        {
          "name": "_value",
          "type": "uint256"
        }
      ],
      "name": "approve",
      "outputs": [
        {
          "name": "",
          "type": "bool"
        }
      ],
      "payable": false,
      "stateMutability": "nonpayable",
      "type": "function"
    },
    {
      "constant": true,
      "inputs": [],
      "name": "totalSupply",
      "outputs": [
        {
          "name": "",
          "type": "uint256"
        }
      ],
      "payable": false,
      "stateMutability": "view",
      "type": "function"
    },
    {
      "constant": false,
      "inputs": [
        {
          "name": "_from",
          "type": "address"
        },
        {
          "name": "_to",
          "type": "address"
        },
        {
          "name": "_value",
          "type": "uint256"
        }
      ],
      "name": "transferFrom",
      "outputs": [
        {
          "name": "",
          "type": "bool"
        }
      ],
      "payable": false,
      "stateMutability": "nonpayable",
      "type": "function"
    },
    {
      "constant": true,
      "inputs": [],
      "name": "decimals",
      "outputs": [
        {
          "name": "",
          "type": "uint8"
        }
      ],
      "payable": false,
      "stateMutability": "view",
      "type": "function"
    },
    {
      "constant": false,
      "inputs": [
        {
          "name": "_to",
          "type": "address"
        },
        {
          "name": "_amount",
          "type": "uint256"
        }
      ],
      "name": "mint",
      "outputs": [
        {
          "name": "",
          "type": "bool"
        }
      ],
      "payable": false,
      "stateMutability": "nonpayable",
      "type": "function"
    },
    {
      "constant": false,
      "inputs": [
        {
          "name": "_spender",
          "type": "address"
        },
        {
          "name": "_subtractedValue",
          "type": "uint256"
        }
      ],
      "name": "decreaseApproval",
      "outputs": [
        {
          "name": "",
          "type": "bool"
        }
      ],
      "payable": false,
      "stateMutability": "nonpayable",
      "type": "function"
    },
    {
      "constant": true,
      "inputs": [
        {
          "name": "_owner",
          "type": "address"
        }
      ],
      "name": "balanceOf",
      "outputs": [
        {
          "name": "balance",
          "type": "uint256"
        }
      ],
      "payable": false,
      "stateMutability": "view",
      "type": "function"
    },
    {
      "constant": false,
      "inputs": [],
      "name": "finishMinting",
      "outputs": [
        {
          "name": "",
          "type": "bool"
        }
      ],
      "payable": false,
      "stateMutability": "nonpayable",
      "type": "function"
    },
    {
      "constant": true,
      "inputs": [],
      "name": "owner",
      "outputs": [
        {
          "name": "",
          "type": "address"
        }
      ],
      "payable": false,
      "stateMutability": "view",
      "type": "function"
    },
    {
      "constant": true,
      "inputs": [],
      "name": "symbol",
      "outputs": [
        {
          "name": "",
          "type": "string"
        }
      ],
      "payable": false,
      "stateMutability": "view",
      "type": "function"
    },
    {
      "constant": false,
      "inputs": [
        {
          "name": "_to",
          "type": "address"
        },
        {
          "name": "_value",
          "type": "uint256"
        }
      ],
      "name": "transfer",
      "outputs": [
        {
          "name": "",
          "type": "bool"
        }
      ],
      "payable": false,
      "stateMutability": "nonpayable",
      "type": "function"
    },
    {
      "constant": false,
      "inputs": [
        {
          "name": "_spender",
          "type": "address"
        },
        {
          "name": "_addedValue",
          "type": "uint256"
        }
      ],
      "name": "increaseApproval",
      "outputs": [
        {
          "name": "",
          "type": "bool"
        }
      ],
      "payable": false,
      "stateMutability": "nonpayable",
      "type": "function"
    },
    {
      "constant": true,
      "inputs": [
        {
          "name": "_owner",
          "type": "address"
        },
        {
          "name": "_spender",
          "type": "address"
        }
      ],
      "name": "allowance",
      "outputs": [
        {
          "name": "",
          "type": "uint256"
        }
      ],
      "payable": false,
      "stateMutability": "view",
      "type": "function"
    },
    {
      "constant": false,
      "inputs": [
        {
          "name": "newOwner",
          "type": "address"
        }
      ],
      "name": "transferOwnership",
      "outputs": [],
      "payable": false,
      "stateMutability": "nonpayable",
      "type": "function"
    },
    {
      "inputs": [],
      "payable": false,
      "stateMutability": "nonpayable",
      "type": "constructor"
    },
    {
      "anonymous": false,
      "inputs": [
        {
          "indexed": true,
          "name": "to",
          "type": "address"
        },
        {
          "indexed": false,
          "name": "amount",
          "type": "uint256"
        }
      ],
      "name": "Mint",
      "type": "event"
    },
    {
      "anonymous": false,
      "inputs": [],
      "name": "MintFinished",
      "type": "event"
    },
    {
      "anonymous": false,
      "inputs": [
        {
          "indexed": true,
          "name": "previousOwner",
          "type": "address"
        },
        {
          "indexed": true,
          "name": "newOwner",
          "type": "address"
        }
      ],
      "name": "OwnershipTransferred",
      "type": "event"
    },
    {
      "anonymous": false,
      "inputs": [
        {
          "indexed": true,
          "name": "owner",
          "type": "address"
        },
        {
          "indexed": true,
          "name": "spender",
          "type": "address"
        },
        {
          "indexed": false,
          "name": "value",
          "type": "uint256"
        }
      ],
      "name": "Approval",
      "type": "event"
    },
    {
      "anonymous": false,
      "inputs": [
        {
          "indexed": true,
          "name": "from",
          "type": "address"
        },
        {
          "indexed": true,
          "name": "to",
          "type": "address"
        },
        {
          "indexed": false,
          "name": "value",
          "type": "uint256"
        }
      ],
      "name": "Transfer",
      "type": "event"
    }
  ],
  "bytecode": "0x60606040526003805460a060020a60ff021916905534156200002057600080fd5b604080519081016040908152600c82527f566f74696e6720746f6b656e00000000000000000000000000000000000000006020830152805190810160405260048082527f564f544500000000000000000000000000000000000000000000000000000000602083015260038054600160a060020a03191633600160a060020a0316179055600090838051620000ba92916020019062000311565b506005828051620000d092916020019062000311565b506006805460ff191660ff929092169190911790555062000104905033611770640100000000620001248102620005a41704565b506200011d640100000000620007c66200025882021704565b50620003b3565b60035460009033600160a060020a039081169116146200014357600080fd5b60035474010000000000000000000000000000000000000000900460ff16156200016c57600080fd5b60005462000189908364010000000062000d01620002fa82021704565b6000908155600160a060020a038416815260016020526040902054620001be908364010000000062000d01620002fa82021704565b600160a060020a0384166000818152600160205260409081902092909255907f0f6798a560793a54c3bcfe86a93cde1e73087d944c0ea20544137d41213968859084905190815260200160405180910390a2600160a060020a03831660007fddf252ad1be2c89b69c2b068fc378daa952ba7f163c4a11628f55a4df523b3ef8460405190815260200160405180910390a350600192915050565b60035460009033600160a060020a039081169116146200027757600080fd5b60035474010000000000000000000000000000000000000000900460ff1615620002a057600080fd5b6003805460a060020a60ff021916740100000000000000000000000000000000000000001790557fae5184fba832cb2b1f702aca6117b8d265eaf03ad33eb133f19dde0f5920fa0860405160405180910390a15060015b90565b6000828201838110156200030a57fe5b9392505050565b828054600181600116156101000203166002900490600052602060002090601f016020900481019282601f106200035457805160ff191683800117855562000384565b8280016001018555821562000384579182015b828111156200038457825182559160200191906001019062000367565b506200039292915062000396565b5090565b620002f791905b808211156200039257600081556001016200039d565b610e6280620003c36000396000f3006060604052600436106100cc5763ffffffff60e060020a60003504166305d2035b81146100d157806306fdde03146100f8578063095ea7b31461018257806318160ddd146101a457806323b872dd146101c9578063313ce567146101f157806340c10f191461021a578063661884631461023c57806370a082311461025e5780637d64bcb41461027d5780638da5cb5b1461029057806395d89b41146102bf578063a9059cbb146102d2578063d73dd623146102f4578063dd62ed3e14610316578063f2fde38b1461033b575b600080fd5b34156100dc57600080fd5b6100e461035c565b604051901515815260200160405180910390f35b341561010357600080fd5b61010b61036c565b60405160208082528190810183818151815260200191508051906020019080838360005b8381101561014757808201518382015260200161012f565b50505050905090810190601f1680156101745780820380516001836020036101000a031916815260200191505b509250505060405180910390f35b341561018d57600080fd5b6100e4600160a060020a036004351660243561040a565b34156101af57600080fd5b6101b7610476565b60405190815260200160405180910390f35b34156101d457600080fd5b6100e4600160a060020a036004358116906024351660443561047c565b34156101fc57600080fd5b61020461059b565b60405160ff909116815260200160405180910390f35b341561022557600080fd5b6100e4600160a060020a03600435166024356105a4565b341561024757600080fd5b6100e4600160a060020a03600435166024356106b1565b341561026957600080fd5b6101b7600160a060020a03600435166107ab565b341561028857600080fd5b6100e46107c6565b341561029b57600080fd5b6102a3610851565b604051600160a060020a03909116815260200160405180910390f35b34156102ca57600080fd5b61010b610860565b34156102dd57600080fd5b6100e4600160a060020a03600435166024356108cb565b34156102ff57600080fd5b6100e4600160a060020a03600435166024356109e8565b341561032157600080fd5b6101b7600160a060020a0360043581169060243516610a8c565b341561034657600080fd5b61035a600160a060020a0360043516610ab7565b005b60035460a060020a900460ff1681565b60048054600181600116156101000203166002900480601f0160208091040260200160405190810160405280929190818152602001828054600181600116156101000203166002900480156104025780601f106103d757610100808354040283529160200191610402565b820191906000526020600020905b8154815290600101906020018083116103e557829003601f168201915b505050505081565b600160a060020a03338116600081815260026020908152604080832094871680845294909152808220859055909291907f8c5be1e5ebec7d5bd14f71427d1e84f3dd0314c0f7b2291e5b200ac8c7c3b9259085905190815260200160405180910390a350600192915050565b60005481565b6000610486610e24565b6000610493868686610b52565b151561049e57600080fd5b6104a785610cd4565b1561058f575083600160a060020a03811663c0ee0b8a8786856040518463ffffffff1660e060020a0281526004018084600160a060020a0316600160a060020a0316815260200183815260200180602001828103825283818151815260200191508051906020019080838360005b8381101561052d578082015183820152602001610515565b50505050905090810190601f16801561055a5780820380516001836020036101000a031916815260200191505b50945050505050600060405180830381600087803b151561057a57600080fd5b6102c65a03f1151561058b57600080fd5b5050505b50600195945050505050565b60065460ff1681565b60035460009033600160a060020a039081169116146105c257600080fd5b60035460a060020a900460ff16156105d957600080fd5b6000546105ec908363ffffffff610d0116565b6000908155600160a060020a038416815260016020526040902054610617908363ffffffff610d0116565b600160a060020a0384166000818152600160205260409081902092909255907f0f6798a560793a54c3bcfe86a93cde1e73087d944c0ea20544137d41213968859084905190815260200160405180910390a2600160a060020a03831660007fddf252ad1be2c89b69c2b068fc378daa952ba7f163c4a11628f55a4df523b3ef8460405190815260200160405180910390a350600192915050565b600160a060020a0333811660009081526002602090815260408083209386168352929052908120548083111561070e57600160a060020a033381166000908152600260209081526040808320938816835292905290812055610745565b61071e818463ffffffff610d1716565b600160a060020a033381166000908152600260209081526040808320938916835292905220555b600160a060020a0333811660008181526002602090815260408083209489168084529490915290819020547f8c5be1e5ebec7d5bd14f71427d1e84f3dd0314c0f7b2291e5b200ac8c7c3b925915190815260200160405180910390a35060019392505050565b600160a060020a031660009081526001602052604090205490565b60035460009033600160a060020a039081169116146107e457600080fd5b60035460a060020a900460ff16156107fb57600080fd5b6003805474ff0000000000000000000000000000000000000000191660a060020a1790557fae5184fba832cb2b1f702aca6117b8d265eaf03ad33eb133f19dde0f5920fa0860405160405180910390a150600190565b600354600160a060020a031681565b60058054600181600116156101000203166002900480601f0160208091040260200160405190810160405280929190818152602001828054600181600116156101000203166002900480156104025780601f106103d757610100808354040283529160200191610402565b60006108d5610e24565b60006108e18585610d29565b15156108ec57600080fd5b6108f585610cd4565b156109dd575083600160a060020a03811663c0ee0b8a3386856040518463ffffffff1660e060020a0281526004018084600160a060020a0316600160a060020a0316815260200183815260200180602001828103825283818151815260200191508051906020019080838360005b8381101561097b578082015183820152602001610963565b50505050905090810190601f1680156109a85780820380516001836020036101000a031916815260200191505b50945050505050600060405180830381600087803b15156109c857600080fd5b6102c65a03f115156109d957600080fd5b5050505b506001949350505050565b600160a060020a033381166000908152600260209081526040808320938616835292905290812054610a20908363ffffffff610d0116565b600160a060020a0333811660008181526002602090815260408083209489168084529490915290819020849055919290917f8c5be1e5ebec7d5bd14f71427d1e84f3dd0314c0f7b2291e5b200ac8c7c3b92591905190815260200160405180910390a350600192915050565b600160a060020a03918216600090815260026020908152604080832093909416825291909152205490565b60035433600160a060020a03908116911614610ad257600080fd5b600160a060020a0381161515610ae757600080fd5b600354600160a060020a0380831691167f8be0079c531659141344cd1fd0a4f28419497f9722a3daafe3b4186f6b6457e060405160405180910390a36003805473ffffffffffffffffffffffffffffffffffffffff1916600160a060020a0392909216919091179055565b6000600160a060020a0383161515610b6957600080fd5b600160a060020a038416600090815260016020526040902054821115610b8e57600080fd5b600160a060020a0380851660009081526002602090815260408083203390941683529290522054821115610bc157600080fd5b600160a060020a038416600090815260016020526040902054610bea908363ffffffff610d1716565b600160a060020a038086166000908152600160205260408082209390935590851681522054610c1f908363ffffffff610d0116565b600160a060020a03808516600090815260016020908152604080832094909455878316825260028152838220339093168252919091522054610c67908363ffffffff610d1716565b600160a060020a03808616600081815260026020908152604080832033861684529091529081902093909355908516917fddf252ad1be2c89b69c2b068fc378daa952ba7f163c4a11628f55a4df523b3ef9085905190815260200160405180910390a35060019392505050565b600080600160a060020a0383161515610cf05760009150610cfb565b823b90506000811191505b50919050565b600082820183811015610d1057fe5b9392505050565b600082821115610d2357fe5b50900390565b6000600160a060020a0383161515610d4057600080fd5b600160a060020a033316600090815260016020526040902054821115610d6557600080fd5b600160a060020a033316600090815260016020526040902054610d8e908363ffffffff610d1716565b600160a060020a033381166000908152600160205260408082209390935590851681522054610dc3908363ffffffff610d0116565b600160a060020a0380851660008181526001602052604090819020939093559133909116907fddf252ad1be2c89b69c2b068fc378daa952ba7f163c4a11628f55a4df523b3ef9085905190815260200160405180910390a350600192915050565b602060405190810160405260008152905600a165627a7a72305820f2ce5057e74e8bddeb743af7ef62d2aac0c85d722ac88dd8613c9172474ce5940029",
  "source": "pragma solidity ^0.4.18;\n\nimport 'zeppelin-solidity/contracts/token/DetailedERC20.sol';\nimport 'zeppelin-solidity/contracts/token/MintableToken.sol';\nimport './ERC233Token.sol';\n\ncontract VoteToken is ERC233Token, MintableToken, DetailedERC20 {\n\n    function VoteToken() public DetailedERC20('Voting token', 'VOTE', 0){\n        mint(msg.sender, 6000);\n        finishMinting();\n    }\n\n}",
  "sourcePath": "/Users/studnev/daoready/solidity-training/contracts/VoteToken.sol",
  "compiler": {
    "name": "solc",
    "version": "0.4.18+commit.9cf6e910.Emscripten.clang"
  },
  "schemaVersion": "1.0.1",
  "updatedAt": "2018-01-30T21:17:06.780Z"
}