{
  "contractName": "Voting",
  "abi": [
    {
      "constant": true,
      "inputs": [],
      "name": "vote_result",
      "outputs": [
        {
          "name": "",
          "type": "uint256"
        }
      ],
      "payable": false,
      "stateMutability": "view",
      "type": "function"
    },
    {
      "constant": true,
      "inputs": [],
      "name": "voters_count",
      "outputs": [
        {
          "name": "",
          "type": "uint256"
        }
      ],
      "payable": false,
      "stateMutability": "view",
      "type": "function"
    },
    {
      "constant": true,
      "inputs": [],
      "name": "owner",
      "outputs": [
        {
          "name": "",
          "type": "address"
        }
      ],
      "payable": false,
      "stateMutability": "view",
      "type": "function"
    },
    {
      "constant": true,
      "inputs": [],
      "name": "completed",
      "outputs": [
        {
          "name": "",
          "type": "bool"
        }
      ],
      "payable": false,
      "stateMutability": "view",
      "type": "function"
    },
    {
      "constant": false,
      "inputs": [
        {
          "name": "_from",
          "type": "address"
        },
        {
          "name": "_value",
          "type": "uint256"
        },
        {
          "name": "_data",
          "type": "bytes"
        }
      ],
      "name": "tokenFallback",
      "outputs": [],
      "payable": false,
      "stateMutability": "nonpayable",
      "type": "function"
    },
    {
      "constant": false,
      "inputs": [],
      "name": "finish",
      "outputs": [],
      "payable": false,
      "stateMutability": "nonpayable",
      "type": "function"
    },
    {
      "constant": true,
      "inputs": [
        {
          "name": "",
          "type": "address"
        }
      ],
      "name": "votes",
      "outputs": [
        {
          "name": "",
          "type": "uint256"
        }
      ],
      "payable": false,
      "stateMutability": "view",
      "type": "function"
    },
    {
      "constant": true,
      "inputs": [
        {
          "name": "",
          "type": "uint256"
        }
      ],
      "name": "voters",
      "outputs": [
        {
          "name": "",
          "type": "address"
        }
      ],
      "payable": false,
      "stateMutability": "view",
      "type": "function"
    },
    {
      "constant": true,
      "inputs": [],
      "name": "voting_token",
      "outputs": [
        {
          "name": "",
          "type": "address"
        }
      ],
      "payable": false,
      "stateMutability": "view",
      "type": "function"
    },
    {
      "constant": false,
      "inputs": [
        {
          "name": "newOwner",
          "type": "address"
        }
      ],
      "name": "transferOwnership",
      "outputs": [],
      "payable": false,
      "stateMutability": "nonpayable",
      "type": "function"
    },
    {
      "inputs": [
        {
          "name": "_voting_token",
          "type": "address"
        }
      ],
      "payable": false,
      "stateMutability": "nonpayable",
      "type": "constructor"
    },
    {
      "anonymous": false,
      "inputs": [
        {
          "indexed": true,
          "name": "previousOwner",
          "type": "address"
        },
        {
          "indexed": true,
          "name": "newOwner",
          "type": "address"
        }
      ],
      "name": "OwnershipTransferred",
      "type": "event"
    }
  ],
  "bytecode": "0x60606040526004805460ff1916905560006005819055600655341561002357600080fd5b6040516020806105c18339810160405280805160008054600160a060020a03338116600160a060020a03199283161790925560018054929093169116179055505061054e806100736000396000f3006060604052600436106100a35763ffffffff7c010000000000000000000000000000000000000000000000000000000060003504166328c2a76881146100a857806340dec728146100cd5780638da5cb5b146100e05780639d9a7fe91461010f578063c0ee0b8a14610136578063d56b28891461019d578063d8bff5a5146101b0578063da58c7d9146101cf578063e4efa047146101e5578063f2fde38b146101f8575b600080fd5b34156100b357600080fd5b6100bb610217565b60405190815260200160405180910390f35b34156100d857600080fd5b6100bb61021d565b34156100eb57600080fd5b6100f3610223565b604051600160a060020a03909116815260200160405180910390f35b341561011a57600080fd5b610122610232565b604051901515815260200160405180910390f35b341561014157600080fd5b61019b60048035600160a060020a03169060248035919060649060443590810190830135806020601f8201819004810201604051908101604052818152929190602084018383808284375094965061023b95505050505050565b005b34156101a857600080fd5b61019b6102f4565b34156101bb57600080fd5b6100bb600160a060020a0360043516610435565b34156101da57600080fd5b6100f3600435610447565b34156101f057600080fd5b6100f3610462565b341561020357600080fd5b61019b600160a060020a0360043516610471565b60065481565b60055481565b600054600160a060020a031681565b60045460ff1681565b60045460ff161561024b57600080fd5b60015433600160a060020a0390811691161461026657600080fd5b600160a060020a03831660009081526002602052604090205415156102c557600580546000908152600360205260409020805473ffffffffffffffffffffffffffffffffffffffff1916600160a060020a038616179055805460010190555b600160a060020a0383166000908152600260205260409020546102ee908363ffffffff61050c16565b50505050565b6000805481908190819033600160a060020a0390811691161461031657600080fd5b60045460ff161561032657600080fd5b60009350600092505b600554831015610411575050600081815260036020908152604080832054600160a060020a0316808452600290925290912054610372848263ffffffff61050c16565b50600154600160a060020a031663a9059cbb83836000604051602001526040517c010000000000000000000000000000000000000000000000000000000063ffffffff8516028152600160a060020a0390921660048301526024820152604401602060405180830381600087803b15156103eb57600080fd5b6102c65a03f115156103fc57600080fd5b5050506040518051505060019092019161032f565b6005548481151561041e57fe5b0460065550506004805460ff191660011790555050565b60026020526000908152604090205481565b600360205260009081526040902054600160a060020a031681565b600154600160a060020a031681565b60005433600160a060020a0390811691161461048c57600080fd5b600160a060020a03811615156104a157600080fd5b600054600160a060020a0380831691167f8be0079c531659141344cd1fd0a4f28419497f9722a3daafe3b4186f6b6457e060405160405180910390a36000805473ffffffffffffffffffffffffffffffffffffffff1916600160a060020a0392909216919091179055565b60008282018381101561051b57fe5b93925050505600a165627a7a7230582004cdebf527b5a62d81eed6dad8d2016fbd83843834814f5a571b312be62a2fd10029",
  "source": "pragma solidity ^0.4.18;\n\nimport 'zeppelin-solidity/contracts/math/SafeMath.sol';\nimport 'zeppelin-solidity/contracts/ownership/Ownable.sol';\n\nimport './VoteToken.sol';\n\n\ncontract Voting is ERC223ReceivingContract, Ownable {\n\n  using SafeMath for uint256;\n\n  VoteToken public voting_token;\n  mapping(address => uint256) public votes;\n  mapping(uint256 => address) public voters;\n\n  bool public completed = false;\n  uint public voters_count = 0;\n  uint public vote_result = 0;\n\n  function Voting(VoteToken _voting_token) {\n     voting_token = _voting_token;\n  }\n\n  function tokenFallback(address _from, uint _value, bytes _data) public {\n      require(!completed);\n      require(msg.sender==address(voting_token));\n\n      if(votes[_from]==0){\n        voters[voters_count] = _from;\n        voters_count += 1;\n      }\n      votes[_from].add(_value);\n  }\n\n\n  function finish()  onlyOwner public {\n    require(!completed);\n\n    uint sum = 0;\n    for(uint i=0;i<voters_count;i++){\n\n        address voter = voters[i];\n        uint256 vote = votes[voter];\n        sum.add(vote);\n\n        voting_token.transfer(voter, vote);\n    }\n\n    vote_result = sum / voters_count;\n\n    completed = true;\n  }\n\n}",
  "sourcePath": "/Users/studnev/daoready/solidity-training/contracts/Voting.sol",
  "compiler": {
    "name": "solc",
    "version": "0.4.18+commit.9cf6e910.Emscripten.clang"
  },
  "schemaVersion": "1.0.1",
  "updatedAt": "2018-01-30T17:04:31.082Z"
}