{
  "contractName": "Voting",
  "abi": [
    {
      "constant": true,
      "inputs": [],
      "name": "quorum",
      "outputs": [
        {
          "name": "",
          "type": "uint256"
        }
      ],
      "payable": false,
      "stateMutability": "view",
      "type": "function"
    },
    {
      "constant": true,
      "inputs": [],
      "name": "vote_result",
      "outputs": [
        {
          "name": "",
          "type": "uint256"
        }
      ],
      "payable": false,
      "stateMutability": "view",
      "type": "function"
    },
    {
      "constant": true,
      "inputs": [],
      "name": "voters_count",
      "outputs": [
        {
          "name": "",
          "type": "uint256"
        }
      ],
      "payable": false,
      "stateMutability": "view",
      "type": "function"
    },
    {
      "constant": true,
      "inputs": [],
      "name": "completed",
      "outputs": [
        {
          "name": "",
          "type": "bool"
        }
      ],
      "payable": false,
      "stateMutability": "view",
      "type": "function"
    },
    {
      "constant": false,
      "inputs": [
        {
          "name": "_from",
          "type": "address"
        },
        {
          "name": "_value",
          "type": "uint256"
        },
        {
          "name": "_data",
          "type": "bytes"
        }
      ],
      "name": "tokenFallback",
      "outputs": [],
      "payable": false,
      "stateMutability": "nonpayable",
      "type": "function"
    },
    {
      "constant": true,
      "inputs": [
        {
          "name": "",
          "type": "address"
        }
      ],
      "name": "votes",
      "outputs": [
        {
          "name": "",
          "type": "uint256"
        }
      ],
      "payable": false,
      "stateMutability": "view",
      "type": "function"
    },
    {
      "constant": true,
      "inputs": [
        {
          "name": "",
          "type": "uint256"
        }
      ],
      "name": "voters",
      "outputs": [
        {
          "name": "",
          "type": "address"
        }
      ],
      "payable": false,
      "stateMutability": "view",
      "type": "function"
    },
    {
      "constant": true,
      "inputs": [],
      "name": "voting_token",
      "outputs": [
        {
          "name": "",
          "type": "address"
        }
      ],
      "payable": false,
      "stateMutability": "view",
      "type": "function"
    },
    {
      "inputs": [
        {
          "name": "_voting_token",
          "type": "address"
        },
        {
          "name": "_quorum",
          "type": "uint256"
        }
      ],
      "payable": false,
      "stateMutability": "nonpayable",
      "type": "constructor"
    }
  ],
  "bytecode": "0x60606040526003805460ff1916905560006005819055600655341561002357600080fd5b6040516040806104c4833981016040528080519190602001805160008054600160a060020a03909516600160a060020a0319909516949094179093555050600455610451806100736000396000f30060606040526004361061008d5763ffffffff7c01000000000000000000000000000000000000000000000000000000006000350416631703a018811461009257806328c2a768146100b757806340dec728146100ca5780639d9a7fe9146100dd578063c0ee0b8a14610104578063d8bff5a51461016b578063da58c7d91461018a578063e4efa047146101bc575b600080fd5b341561009d57600080fd5b6100a56101cf565b60405190815260200160405180910390f35b34156100c257600080fd5b6100a56101d5565b34156100d557600080fd5b6100a56101db565b34156100e857600080fd5b6100f06101e1565b604051901515815260200160405180910390f35b341561010f57600080fd5b61016960048035600160a060020a03169060248035919060649060443590810190830135806020601f820181900481020160405190810160405281815292919060208401838380828437509496506101ea95505050505050565b005b341561017657600080fd5b6100a5600160a060020a03600435166102c4565b341561019557600080fd5b6101a06004356102d6565b604051600160a060020a03909116815260200160405180910390f35b34156101c757600080fd5b6101a06102f1565b60045481565b60065481565b60055481565b60035460ff1681565b60035460ff16156101fa57600080fd5b6000821161020757600080fd5b60005433600160a060020a0390811691161461022257600080fd5b600160a060020a038316600090815260016020526040902054151561028157600580546000908152600260205260409020805473ffffffffffffffffffffffffffffffffffffffff1916600160a060020a038616179055805460010190555b600160a060020a0383166000908152600160205260409020546102aa908363ffffffff61030016565b5060045460055414156102bf576102bf610316565b505050565b60016020526000908152604090205481565b600260205260009081526040902054600160a060020a031681565b600054600160a060020a031681565b60008282018381101561030f57fe5b9392505050565b60008080805b600554831015610401575050600081815260026020908152604080832054600160a060020a031680845260019092529091205461035f848263ffffffff61030016565b5060008054600160a060020a03169063a9059cbb9084908490604051602001526040517c010000000000000000000000000000000000000000000000000000000063ffffffff8516028152600160a060020a0390921660048301526024820152604401602060405180830381600087803b15156103db57600080fd5b6102c65a03f115156103ec57600080fd5b5050506040518051505060019092019161031c565b6005548481151561040e57fe5b0460065550506003805460ff1916600117905550505600a165627a7a723058208f15f3136674e711ba6b746587a084f732027b642f6983cd071698a5857ec9360029",
  "source": "pragma solidity ^0.4.18;\n\nimport 'zeppelin-solidity/contracts/math/SafeMath.sol';\nimport './VoteToken.sol';\n\n\ncontract Voting is ERC223ReceivingContract {\n\n  using SafeMath for uint256;\n\n  VoteToken public voting_token;\n  mapping(address => uint256) public votes;\n  mapping(uint256 => address) public voters;\n\n  bool public completed = false;\n  uint public quorum;\n  uint public voters_count = 0;\n  uint public vote_result = 0;\n\n  function Voting(VoteToken _voting_token, uint256 _quorum) {\n     voting_token = _voting_token;\n     quorum = _quorum;\n  }\n\n  function tokenFallback(address _from, uint _value, bytes _data) public {\n      require(!completed);\n      require(_value>0);\n      require(msg.sender==address(voting_token));\n\n      if(votes[_from]==0){\n        voters[voters_count] = _from;\n        voters_count += 1;\n      }\n\n      votes[_from].add(_value);\n\n      if(voters_count==quorum){\n        finish();\n      }\n  }\n\n\n  function finish() internal {\n\n    uint sum = 0;\n    for(uint i=0;i<voters_count;i++){\n\n        address voter = voters[i];\n        uint256 vote = votes[voter];\n        sum.add(vote);\n\n        voting_token.transfer(voter, vote);\n    }\n\n    vote_result = sum / voters_count;\n\n    completed = true;\n  }\n\n}",
  "sourcePath": "/Users/studnev/daoready/solidity-training/contracts/Voting.sol",
  "compiler": {
    "name": "solc",
    "version": "0.4.18+commit.9cf6e910.Emscripten.clang"
  },
  "schemaVersion": "1.0.1",
  "updatedAt": "2018-01-30T21:24:02.909Z"
}